{
  "_format": "hh-sol-artifact-1",
  "contractName": "Funding",
  "sourceName": "contracts/Fund.sol",
  "abi": [
    {
      "inputs": [],
      "name": "campaignCount",
      "outputs": [
        {
          "internalType": "uint256",
          "name": "",
          "type": "uint256"
        }
      ],
      "stateMutability": "view",
      "type": "function"
    },
    {
      "inputs": [
        {
          "internalType": "uint256",
          "name": "",
          "type": "uint256"
        }
      ],
      "name": "campaigns",
      "outputs": [
        {
          "internalType": "uint256",
          "name": "id",
          "type": "uint256"
        },
        {
          "internalType": "address payable",
          "name": "reciever",
          "type": "address"
        },
        {
          "internalType": "address",
          "name": "donor",
          "type": "address"
        },
        {
          "internalType": "string",
          "name": "name",
          "type": "string"
        },
        {
          "internalType": "string",
          "name": "description",
          "type": "string"
        },
        {
          "internalType": "uint256",
          "name": "fundingGoal",
          "type": "uint256"
        },
        {
          "internalType": "uint256",
          "name": "raisedFunds",
          "type": "uint256"
        },
        {
          "internalType": "bool",
          "name": "completed",
          "type": "bool"
        }
      ],
      "stateMutability": "view",
      "type": "function"
    },
    {
      "inputs": [
        {
          "internalType": "string",
          "name": "name",
          "type": "string"
        },
        {
          "internalType": "string",
          "name": "description",
          "type": "string"
        },
        {
          "internalType": "uint256",
          "name": "fundingGoal",
          "type": "uint256"
        }
      ],
      "name": "createCampaign",
      "outputs": [],
      "stateMutability": "nonpayable",
      "type": "function"
    },
    {
      "inputs": [
        {
          "internalType": "uint256",
          "name": "id",
          "type": "uint256"
        }
      ],
      "name": "donate",
      "outputs": [],
      "stateMutability": "payable",
      "type": "function"
    }
  ],
  "bytecode": "0x608060405234801561001057600080fd5b50611166806100206000396000f3fe60806040526004361061003f5760003560e01c8063141961bc146100445780637274e30d14610088578063f14faf6f146100b3578063ffa56a57146100cf575b600080fd5b34801561005057600080fd5b5061006b60048036038101906100669190610898565b6100f8565b60405161007f9897969594939291906109e1565b60405180910390f35b34801561009457600080fd5b5061009d6102ad565b6040516100aa9190610a6d565b60405180910390f35b6100cd60048036038101906100c89190610898565b6102b3565b005b3480156100db57600080fd5b506100f660048036038101906100f19190610bbd565b610679565b005b6001818154811061010857600080fd5b90600052602060002090600802016000915090508060000154908060010160009054906101000a900473ffffffffffffffffffffffffffffffffffffffff16908060020160009054906101000a900473ffffffffffffffffffffffffffffffffffffffff169080600301805461017d90610c77565b80601f01602080910402602001604051908101604052809291908181526020018280546101a990610c77565b80156101f65780601f106101cb576101008083540402835291602001916101f6565b820191906000526020600020905b8154815290600101906020018083116101d957829003601f168201915b50505050509080600401805461020b90610c77565b80601f016020809104026020016040519081016040528092919081815260200182805461023790610c77565b80156102845780601f1061025957610100808354040283529160200191610284565b820191906000526020600020905b81548152906001019060200180831161026757829003601f168201915b5050505050908060050154908060060154908060070160009054906101000a900460ff16905088565b60005481565b3373ffffffffffffffffffffffffffffffffffffffff16600182815481106102de576102dd610ca8565b5b906000526020600020906008020160010160009054906101000a900473ffffffffffffffffffffffffffffffffffffffff1673ffffffffffffffffffffffffffffffffffffffff1603610366576040517f08c379a000000000000000000000000000000000000000000000000000000000815260040161035d90610d23565b60405180910390fd5b600015156001828154811061037e5761037d610ca8565b5b906000526020600020906008020160070160009054906101000a900460ff161515146103df576040517f08c379a00000000000000000000000000000000000000000000000000000000081526004016103d690610d8f565b60405180910390fd5b600181815481106103f3576103f2610ca8565b5b9060005260206000209060080201600601546001828154811061041957610418610ca8565b5b9060005260206000209060080201600501546104359190610dde565b341115610477576040517f08c379a000000000000000000000000000000000000000000000000000000000815260040161046e90610e5e565b60405180910390fd5b336001828154811061048c5761048b610ca8565b5b906000526020600020906008020160020160006101000a81548173ffffffffffffffffffffffffffffffffffffffff021916908373ffffffffffffffffffffffffffffffffffffffff16021790555034600182815481106104f0576104ef610ca8565b5b906000526020600020906008020160060160008282546105109190610e7e565b925050819055506001818154811061052b5761052a610ca8565b5b906000526020600020906008020160010160009054906101000a900473ffffffffffffffffffffffffffffffffffffffff1673ffffffffffffffffffffffffffffffffffffffff166108fc349081150290604051600060405180830381858888f193505050501580156105a2573d6000803e3d6000fd5b50600181815481106105b7576105b6610ca8565b5b906000526020600020906008020160050154600182815481106105dd576105dc610ca8565b5b90600052602060002090600802016006015410156106385760006001828154811061060b5761060a610ca8565b5b906000526020600020906008020160070160006101000a81548160ff021916908315150217905550610676565b600180828154811061064d5761064c610ca8565b5b906000526020600020906008020160070160006101000a81548160ff0219169083151502179055505b50565b600083511161068757600080fd5b600082511161069557600080fd5b600081116106a257600080fd5b60016000546106b19190610e7e565b600081905550600160405180610100016040528060005481526020013373ffffffffffffffffffffffffffffffffffffffff168152602001600073ffffffffffffffffffffffffffffffffffffffff168152602001858152602001848152602001838152602001600081526020016000151581525090806001815401808255809150506001900390600052602060002090600802016000909190919091506000820151816000015560208201518160010160006101000a81548173ffffffffffffffffffffffffffffffffffffffff021916908373ffffffffffffffffffffffffffffffffffffffff16021790555060408201518160020160006101000a81548173ffffffffffffffffffffffffffffffffffffffff021916908373ffffffffffffffffffffffffffffffffffffffff16021790555060608201518160030190816107fc919061105e565b506080820151816004019081610812919061105e565b5060a0820151816005015560c0820151816006015560e08201518160070160006101000a81548160ff0219169083151502179055505050505050565b6000604051905090565b600080fd5b600080fd5b6000819050919050565b61087581610862565b811461088057600080fd5b50565b6000813590506108928161086c565b92915050565b6000602082840312156108ae576108ad610858565b5b60006108bc84828501610883565b91505092915050565b6108ce81610862565b82525050565b600073ffffffffffffffffffffffffffffffffffffffff82169050919050565b60006108ff826108d4565b9050919050565b61090f816108f4565b82525050565b6000610920826108d4565b9050919050565b61093081610915565b82525050565b600081519050919050565b600082825260208201905092915050565b60005b83811015610970578082015181840152602081019050610955565b60008484015250505050565b6000601f19601f8301169050919050565b600061099882610936565b6109a28185610941565b93506109b2818560208601610952565b6109bb8161097c565b840191505092915050565b60008115159050919050565b6109db816109c6565b82525050565b6000610100820190506109f7600083018b6108c5565b610a04602083018a610906565b610a116040830189610927565b8181036060830152610a23818861098d565b90508181036080830152610a37818761098d565b9050610a4660a08301866108c5565b610a5360c08301856108c5565b610a6060e08301846109d2565b9998505050505050505050565b6000602082019050610a8260008301846108c5565b92915050565b600080fd5b600080fd5b7f4e487b7100000000000000000000000000000000000000000000000000000000600052604160045260246000fd5b610aca8261097c565b810181811067ffffffffffffffff82111715610ae957610ae8610a92565b5b80604052505050565b6000610afc61084e565b9050610b088282610ac1565b919050565b600067ffffffffffffffff821115610b2857610b27610a92565b5b610b318261097c565b9050602081019050919050565b82818337600083830152505050565b6000610b60610b5b84610b0d565b610af2565b905082815260208101848484011115610b7c57610b7b610a8d565b5b610b87848285610b3e565b509392505050565b600082601f830112610ba457610ba3610a88565b5b8135610bb4848260208601610b4d565b91505092915050565b600080600060608486031215610bd657610bd5610858565b5b600084013567ffffffffffffffff811115610bf457610bf361085d565b5b610c0086828701610b8f565b935050602084013567ffffffffffffffff811115610c2157610c2061085d565b5b610c2d86828701610b8f565b9250506040610c3e86828701610883565b9150509250925092565b7f4e487b7100000000000000000000000000000000000000000000000000000000600052602260045260246000fd5b60006002820490506001821680610c8f57607f821691505b602082108103610ca257610ca1610c48565b5b50919050565b7f4e487b7100000000000000000000000000000000000000000000000000000000600052603260045260246000fd5b7f796f752063616e6e6f742073656e642065746800000000000000000000000000600082015250565b6000610d0d601383610941565b9150610d1882610cd7565b602082019050919050565b60006020820190508181036000830152610d3c81610d00565b9050919050565b7f63616d706169676e20656e646564000000000000000000000000000000000000600082015250565b6000610d79600e83610941565b9150610d8482610d43565b602082019050919050565b60006020820190508181036000830152610da881610d6c565b9050919050565b7f4e487b7100000000000000000000000000000000000000000000000000000000600052601160045260246000fd5b6000610de982610862565b9150610df483610862565b9250828203905081811115610e0c57610e0b610daf565b5b92915050565b7f646f6e6174696e6720657468206d6f7265207468616e20726571756972656400600082015250565b6000610e48601f83610941565b9150610e5382610e12565b602082019050919050565b60006020820190508181036000830152610e7781610e3b565b9050919050565b6000610e8982610862565b9150610e9483610862565b9250828201905080821115610eac57610eab610daf565b5b92915050565b60008190508160005260206000209050919050565b60006020601f8301049050919050565b600082821b905092915050565b600060088302610f147fffffffffffffffffffffffffffffffffffffffffffffffffffffffffffffffff82610ed7565b610f1e8683610ed7565b95508019841693508086168417925050509392505050565b6000819050919050565b6000610f5b610f56610f5184610862565b610f36565b610862565b9050919050565b6000819050919050565b610f7583610f40565b610f89610f8182610f62565b848454610ee4565b825550505050565b600090565b610f9e610f91565b610fa9818484610f6c565b505050565b5b81811015610fcd57610fc2600082610f96565b600181019050610faf565b5050565b601f82111561101257610fe381610eb2565b610fec84610ec7565b81016020851015610ffb578190505b61100f61100785610ec7565b830182610fae565b50505b505050565b600082821c905092915050565b600061103560001984600802611017565b1980831691505092915050565b600061104e8383611024565b9150826002028217905092915050565b61106782610936565b67ffffffffffffffff8111156110805761107f610a92565b5b61108a8254610c77565b611095828285610fd1565b600060209050601f8311600181146110c857600084156110b6578287015190505b6110c08582611042565b865550611128565b601f1984166110d686610eb2565b60005b828110156110fe578489015182556001820191506020850194506020810190506110d9565b8683101561111b5784890151611117601f891682611024565b8355505b6001600288020188555050505b50505050505056fea26469706673582212207b1cca0d969f20bf6140b551989b934e9f4c243fb5e67b0ec5dd17b91c4f021b64736f6c63430008120033",
  "linkReferences": {},
  "deployedLinkReferences": {}
}